{
  "_format": "hh-sol-artifact-1",
  "contractName": "ToDoList",
  "sourceName": "contracts/ToDoList.sol",
  "abi": [
    {
      "anonymous": false,
      "inputs": [
        {
          "indexed": false,
          "internalType": "uint256",
          "name": "id",
          "type": "uint256"
        },
        {
          "indexed": false,
          "internalType": "uint256",
          "name": "date",
          "type": "uint256"
        },
        {
          "indexed": false,
          "internalType": "string",
          "name": "content",
          "type": "string"
        },
        {
          "indexed": false,
          "internalType": "string",
          "name": "author",
          "type": "string"
        },
        {
          "indexed": false,
          "internalType": "bool",
          "name": "done",
          "type": "bool"
        }
      ],
      "name": "TaskCreated",
      "type": "event"
    },
    {
      "anonymous": false,
      "inputs": [
        {
          "indexed": false,
          "internalType": "uint256",
          "name": "id",
          "type": "uint256"
        },
        {
          "indexed": false,
          "internalType": "bool",
          "name": "done",
          "type": "bool"
        },
        {
          "indexed": false,
          "internalType": "uint256",
          "name": "date",
          "type": "uint256"
        }
      ],
      "name": "TaskStatusToggled",
      "type": "event"
    },
    {
      "inputs": [
        {
          "internalType": "string",
          "name": "_content",
          "type": "string"
        },
        {
          "internalType": "string",
          "name": "_author",
          "type": "string"
        }
      ],
      "name": "createTask",
      "outputs": [],
      "stateMutability": "nonpayable",
      "type": "function"
    },
    {
      "inputs": [],
      "name": "getTasks",
      "outputs": [
        {
          "components": [
            {
              "internalType": "uint256",
              "name": "id",
              "type": "uint256"
            },
            {
              "internalType": "uint256",
              "name": "date",
              "type": "uint256"
            },
            {
              "internalType": "string",
              "name": "content",
              "type": "string"
            },
            {
              "internalType": "string",
              "name": "author",
              "type": "string"
            },
            {
              "internalType": "bool",
              "name": "done",
              "type": "bool"
            },
            {
              "internalType": "uint256",
              "name": "dateCompleted",
              "type": "uint256"
            }
          ],
          "internalType": "struct ToDoList.Task[]",
          "name": "",
          "type": "tuple[]"
        }
      ],
      "stateMutability": "view",
      "type": "function"
    },
    {
      "inputs": [],
      "name": "nextTaskId",
      "outputs": [
        {
          "internalType": "uint256",
          "name": "",
          "type": "uint256"
        }
      ],
      "stateMutability": "view",
      "type": "function"
    },
    {
      "inputs": [
        {
          "internalType": "uint256",
          "name": "",
          "type": "uint256"
        }
      ],
      "name": "tasks",
      "outputs": [
        {
          "internalType": "uint256",
          "name": "id",
          "type": "uint256"
        },
        {
          "internalType": "uint256",
          "name": "date",
          "type": "uint256"
        },
        {
          "internalType": "string",
          "name": "content",
          "type": "string"
        },
        {
          "internalType": "string",
          "name": "author",
          "type": "string"
        },
        {
          "internalType": "bool",
          "name": "done",
          "type": "bool"
        },
        {
          "internalType": "uint256",
          "name": "dateCompleted",
          "type": "uint256"
        }
      ],
      "stateMutability": "view",
      "type": "function"
    },
    {
      "inputs": [
        {
          "internalType": "uint256",
          "name": "id",
          "type": "uint256"
        }
      ],
      "name": "toggleDone",
      "outputs": [],
      "stateMutability": "nonpayable",
      "type": "function"
    }
  ],
  "bytecode": "0x608060405234801561001057600080fd5b50610f1f806100206000396000f3fe608060405234801561001057600080fd5b50600436106100575760003560e01c806304a87e381461005c578063292a45851461007a5780638d97767214610096578063d81ef739146100cb578063fdc3d8d7146100e7575b600080fd5b610064610105565b60405161007191906109b1565b60405180910390f35b610094600480360381019061008f9190610b1c565b610321565b005b6100b060048036038101906100ab9190610bc0565b610441565b6040516100c296959493929190610c55565b60405180910390f35b6100e560048036038101906100e09190610bc0565b61059a565b005b6100ef6106b1565b6040516100fc9190610cc4565b60405180910390f35b6060600060015467ffffffffffffffff811115610125576101246109f1565b5b60405190808252806020026020018201604052801561015e57816020015b61014b6106b7565b8152602001906001900390816101435790505b50905060005b600154811015610319576000808281526020019081526020016000206040518060c001604052908160008201548152602001600182015481526020016002820180546101af90610d0e565b80601f01602080910402602001604051908101604052809291908181526020018280546101db90610d0e565b80156102285780601f106101fd57610100808354040283529160200191610228565b820191906000526020600020905b81548152906001019060200180831161020b57829003601f168201915b5050505050815260200160038201805461024190610d0e565b80601f016020809104026020016040519081016040528092919081815260200182805461026d90610d0e565b80156102ba5780601f1061028f576101008083540402835291602001916102ba565b820191906000526020600020905b81548152906001019060200180831161029d57829003601f168201915b505050505081526020016004820160009054906101000a900460ff161515151581526020016005820154815250508282815181106102fb576102fa610d3f565b5b6020026020010181905250808061031190610d9d565b915050610164565b508091505090565b6040518060c00160405280600154815260200142815260200183815260200182815260200160001515815260200160008152506000806001548152602001908152602001600020600082015181600001556020820151816001015560408201518160020190805190602001906103989291906106ef565b5060608201518160030190805190602001906103b59291906106ef565b5060808201518160040160006101000a81548160ff02191690831515021790555060a082015181600501559050507fb322bdd3250d405f7845d27fa1f0753f8f7e18e40886bc254b89005c3e9c0324600154428484600060405161041d959493929190610de5565b60405180910390a16001600081548092919061043890610d9d565b91905055505050565b600060205280600052604060002060009150905080600001549080600101549080600201805461047090610d0e565b80601f016020809104026020016040519081016040528092919081815260200182805461049c90610d0e565b80156104e95780601f106104be576101008083540402835291602001916104e9565b820191906000526020600020905b8154815290600101906020018083116104cc57829003601f168201915b5050505050908060030180546104fe90610d0e565b80601f016020809104026020016040519081016040528092919081815260200182805461052a90610d0e565b80156105775780601f1061054c57610100808354040283529160200191610577565b820191906000526020600020905b81548152906001019060200180831161055a57829003601f168201915b5050505050908060040160009054906101000a900460ff16908060050154905086565b600080600083815260200190815260200160002060000154036105f2576040517f08c379a00000000000000000000000000000000000000000000000000000000081526004016105e990610e92565b60405180910390fd5b600080600083815260200190815260200160002090508060040160009054906101000a900460ff16158160040160006101000a81548160ff0219169083151502179055508060040160009054906101000a900460ff16610653576000610655565b425b81600501819055507fcb1ceae718a6ae11d5daf00e292e318717e0acf2d326ed670df0e5ff67ba5000828260040160009054906101000a900460ff1683600501546040516106a593929190610eb2565b60405180910390a15050565b60015481565b6040518060c0016040528060008152602001600081526020016060815260200160608152602001600015158152602001600081525090565b8280546106fb90610d0e565b90600052602060002090601f01602090048101928261071d5760008555610764565b82601f1061073657805160ff1916838001178555610764565b82800160010185558215610764579182015b82811115610763578251825591602001919060010190610748565b5b5090506107719190610775565b5090565b5b8082111561078e576000816000905550600101610776565b5090565b600081519050919050565b600082825260208201905092915050565b6000819050602082019050919050565b6000819050919050565b6107d1816107be565b82525050565b600081519050919050565b600082825260208201905092915050565b60005b838110156108115780820151818401526020810190506107f6565b83811115610820576000848401525b50505050565b6000601f19601f8301169050919050565b6000610842826107d7565b61084c81856107e2565b935061085c8185602086016107f3565b61086581610826565b840191505092915050565b60008115159050919050565b61088581610870565b82525050565b600060c0830160008301516108a360008601826107c8565b5060208301516108b660208601826107c8565b50604083015184820360408601526108ce8282610837565b915050606083015184820360608601526108e88282610837565b91505060808301516108fd608086018261087c565b5060a083015161091060a08601826107c8565b508091505092915050565b6000610927838361088b565b905092915050565b6000602082019050919050565b600061094782610792565b610951818561079d565b935083602082028501610963856107ae565b8060005b8581101561099f5784840389528151610980858261091b565b945061098b8361092f565b925060208a01995050600181019050610967565b50829750879550505050505092915050565b600060208201905081810360008301526109cb818461093c565b905092915050565b6000604051905090565b600080fd5b600080fd5b600080fd5b600080fd5b7f4e487b7100000000000000000000000000000000000000000000000000000000600052604160045260246000fd5b610a2982610826565b810181811067ffffffffffffffff82111715610a4857610a476109f1565b5b80604052505050565b6000610a5b6109d3565b9050610a678282610a20565b919050565b600067ffffffffffffffff821115610a8757610a866109f1565b5b610a9082610826565b9050602081019050919050565b82818337600083830152505050565b6000610abf610aba84610a6c565b610a51565b905082815260208101848484011115610adb57610ada6109ec565b5b610ae6848285610a9d565b509392505050565b600082601f830112610b0357610b026109e7565b5b8135610b13848260208601610aac565b91505092915050565b60008060408385031215610b3357610b326109dd565b5b600083013567ffffffffffffffff811115610b5157610b506109e2565b5b610b5d85828601610aee565b925050602083013567ffffffffffffffff811115610b7e57610b7d6109e2565b5b610b8a85828601610aee565b9150509250929050565b610b9d816107be565b8114610ba857600080fd5b50565b600081359050610bba81610b94565b92915050565b600060208284031215610bd657610bd56109dd565b5b6000610be484828501610bab565b91505092915050565b610bf6816107be565b82525050565b600082825260208201905092915050565b6000610c18826107d7565b610c228185610bfc565b9350610c328185602086016107f3565b610c3b81610826565b840191505092915050565b610c4f81610870565b82525050565b600060c082019050610c6a6000830189610bed565b610c776020830188610bed565b8181036040830152610c898187610c0d565b90508181036060830152610c9d8186610c0d565b9050610cac6080830185610c46565b610cb960a0830184610bed565b979650505050505050565b6000602082019050610cd96000830184610bed565b92915050565b7f4e487b7100000000000000000000000000000000000000000000000000000000600052602260045260246000fd5b60006002820490506001821680610d2657607f821691505b602082108103610d3957610d38610cdf565b5b50919050565b7f4e487b7100000000000000000000000000000000000000000000000000000000600052603260045260246000fd5b7f4e487b7100000000000000000000000000000000000000000000000000000000600052601160045260246000fd5b6000610da8826107be565b91507fffffffffffffffffffffffffffffffffffffffffffffffffffffffffffffffff8203610dda57610dd9610d6e565b5b600182019050919050565b600060a082019050610dfa6000830188610bed565b610e076020830187610bed565b8181036040830152610e198186610c0d565b90508181036060830152610e2d8185610c0d565b9050610e3c6080830184610c46565b9695505050505050565b7f5461736b20646f6573206e6f74206578697374732e0000000000000000000000600082015250565b6000610e7c601583610bfc565b9150610e8782610e46565b602082019050919050565b60006020820190508181036000830152610eab81610e6f565b9050919050565b6000606082019050610ec76000830186610bed565b610ed46020830185610c46565b610ee16040830184610bed565b94935050505056fea26469706673582212208652911bed67e0dfe4e9d1ef30bcb2902ae7e4ecd53d163a6217a4bbdcbe944464736f6c634300080e0033",
  "linkReferences": {},
  "deployedLinkReferences": {}
}